:100000001DC037C036C035C034C01CC132C031C07D
:1000100030C02FC0EEC02DC02CC02BC02AC00102A2
:100020000000040001020408102002020202020281
:1000300000000000380000000000370011241FBE3F
:10004000CFE5D2E0DEBFCDBF20E0A4E6B0E001C046
:100050001D92A437B207E1F710E0A0E6B0E0E4E6B5
:10006000F7E002C005900D92A436B107D9F7B2D2DD
:1000700077C3C6CFCF93DF93EC011092690061E0A4
:1000800081E01ED2CE0172D160E081E0DF91CF919C
:1000900017C2CF93DF9361E081E0C8D18FEA89BDB9
:1000A00089B7806189BFC4E6D0E08CED95E0E2DFDE
:1000B00084E498E45BD12197C1F7DF91CF91089553
:1000C000AF92BF92CF92DF92EF92FF920F931F9366
:1000D000CF93DF9380916900882379F08091670046
:1000E00090916800DF91CF911F910F91FF90EF9059
:1000F000DF90CF90BF90AF90BDCF1092660010926E
:10010000650083E851D1899744F083E84DD1833C61
:10011000934034F483E848D105C089E290E002C0FE
:1001200082EC93E0909366008093650061E070E05C
:1001300080E090E0F6D0C4E0D0E00091650010913E
:10014000660083E831D1899744F083E82DD1833C60
:10015000934034F483E828D105C089E290E002C0DE
:1001600082EC93E0800F911F97FD019695958795FE
:10017000909366008093650061E070E080E090E01D
:10018000D0D02197D1F660916500709166008827E4
:1001900077FD8095982F1F921F9229E02F9320E6DC
:1001A0002F9328E5A22E22E0B22EC12CD12C12ECE6
:1001B000E12E13E0F12E00E010E029E230E040E013
:1001C00050E0C6D170936800609367000F900F9065
:1001D0000F900F9061E070E080E090E0DF91CF91B0
:1001E0001F910F91FF90EF90DF90CF90BF90AF9055
:1001F00098C01F920F920FB60F9211248F93809187
:1002000064008E5F8093640080916400843128F0E4
:100210001092640081E0809369008F910F900FBE6F
:100220000F901F90189580B7807F80BF80B780683F
:1002300080BF8CB580648CBD8FEF8DBD80B787602B
:1002400080BF08951F920F920FB60F9211242F9323
:100250003F938F939F93AF93BF9380916B00909147
:100260006C00A0916D00B0916E0030916A0026E0A4
:10027000230F2D3730F029E8230F0396A11DB11D60
:1002800003C00296A11DB11D20936A0080936B00EC
:1002900090936C00A0936D00B0936E0080916F00FE
:1002A00090917000A0917100B09172000196A11D13
:1002B000B11D80936F0090937000A0937100B09374
:1002C0007200BF91AF919F918F913F912F910F90AD
:1002D0000FBE0F901F9018953FB7F89480916F0054
:1002E00090917000A0917100B091720022B708B691
:1002F00001FE05C02F3F19F00196A11DB11D3FBFA2
:100300006627782F892F9A2F620F711D811D911DED
:1003100043E0660F771F881F991F4A95D1F708950C
:100320000895CF92DF92EF92FF92CF93DF936B010C
:100330007C01D2DFEB01C114D104E104F10479F0B6
:10034000EFDFCADF6C1B7D0B683E7340A0F381E0DA
:10035000C81AD108E108F108C851DC4FF2CFDF918B
:10036000CF91FF90EF90DF90CF900895833091056B
:1003700028F0880F991F04970197F1F708958AB51F
:1003800082608ABD8AB581608ABD83B7887F8360B9
:1003900083BF789489B7826089BF45DF86B188774B
:1003A000866886B9379A08958F70909173009295F8
:1003B000990F990F907C982B97B987B19091730002
:1003C00092FB222720F930E094E0220F331F9A9508
:1003D000E1F7822B87B9369A3699FECF84B125B1E1
:1003E00090E0922B0895813031F48AB58F778ABDE1
:1003F0008AB58F7B07C0823039F48AB58F7D8ABD7C
:100400008AB58F7E8ABD0895833039F480B78F7D99
:1004100080BF80B78F7E80BF0895843031F48CB563
:100420008F7D8CBD8CB58F7E8CBD0895CF93DF936F
:1004300087FF0FC08F7741F0813041F0823041F06B
:10044000833039F08FEF05C085E003C082E001C042
:1004500084E090E0FC01EC5DFF4F2491FC01E65D3F
:10046000FF4F8491882349F190E0880F991FFC0188
:10047000EA5CFF4FA591B491805D9F4FFC01C5914F
:10048000D4919FB7611108C0F8948C912095822374
:100490008C93888182230AC0623051F4F8948C9145
:1004A000322F309583238C938881822B888304C0DC
:1004B000F8948C91822B8C939FBFDF91CF910895FC
:1004C0000F931F93CF93DF931F92CDB7DEB787FFB4
:1004D0000FC08F7741F0813041F0823041F083309E
:1004E00039F08FEF05C085E003C082E001C084E0F1
:1004F000282F30E0F901E25EFF4F8491F901EC5DB5
:10050000FF4F1491F901E65DFF4F04910023D1F0F4
:10051000882319F0698367DF6981E02FF0E0EE0F2F
:10052000FF1FE05DFF4FA591B4919FB7611105C01A
:10053000F8948C911095812303C0F8948C91812BB1
:100540008C939FBF0F90DF91CF911F910F910895D2
:100550004F925F926F927F92AF92BF92CF92DF9253
:10056000EF92FF920F931F93CF93DF93CDB7DEB738
:1005700029013A0129893A894B895C8964197509ED
:10058000860997092A193B094C095D0945D0A32F13
:10059000F42FE52FE418F50806091709622F7A2FC2
:1005A0008F2F9E2FA80197011BD02A0D3B1D4C1D9C
:1005B0005D1DCA01B901DF91CF911F910F91FF908D
:1005C000EF90DF90CF90BF90AF907F906F905F9053
:1005D0004F90089581B781BFD2DE5BDD71DDFECF24
:1005E000052E97FB16F400940FD057FD05D068D068
:1005F00007FC02D046F408C05095409530952195EF
:100600003F4F4F4F5F4F089590958095709561953E
:100610007F4F8F4F9F4F089568940013E894A0E098
:10062000B0E0E4E1F3E01DC0EFEFE7F959016A0142
:100630005E23550FEE08FE2C87019B01AC019E2323
:10064000990F660B762FCB015DD0CDB7DEB7EAE010
:1006500024C02F923F924F925F926F927F928F921F
:100660009F92AF92BF92CF92DF92EF92FF920F9341
:100670001F93CF93DF93CDB7DEB7CA1BDB0B0FB64B
:10068000F894DEBF0FBECDBF09942A883988488808
:100690005F846E847D848C849B84AA84B984C8849E
:1006A000DF80EE80FD800C811B81AA81B981CE0F95
:1006B000D11D0FB6F894DEBF0FBECDBFED0108957A
:1006C000A1E21A2EAA1BBB1BFD010DC0AA1FBB1F56
:1006D000EE1FFF1FA217B307E407F50720F0A21BC8
:1006E000B30BE40BF50B661F771F881F991F1A9435
:1006F00069F760957095809590959B01AC01BD015F
:10070000CF010895DF93CF939F92A0E49A2E002407
:10071000D001E001F00116950795F794E794D7947E
:10072000C794B794A79448F41068A20FB31FC41FCE
:10073000D51FE61FF71F081E191E220F331F441F67
:10074000551F661F771F881F991F9A9421F79D01D7
:10075000AE01BF01C00111249F90CF91DF91089598
:04076000F894FFCF3B
:040764000100000090
:00000001FF
