:100000001DC037C036C0F7C034C09CC132C031C03B
:1000100030C02FC06EC12DC02CC02BC02AC0010221
:100020000000040001020408102002020202020281
:1000300000000000380000000000370011241FBE3F
:10004000CFE5D2E0DEBFCDBF10E0A0E6B0E0E2E257
:10005000F6E002C005900D92A236B107D9F720E074
:10006000A2E6B0E001C01D92A438B207E1F7D1D2F8
:10007000D6C2C6CF80916000909161008130910519
:1000800009F459C01CF4892BD9F1089582309105E7
:1000900009F4A7C0039709F0ADC0809176008F5F87
:1000A0008093760080917600853011F4109276006E
:1000B000E0917600F0E0EE0FFF1FEE0FFF1FEE590C
:1000C000FF4F82818823A1F0E091760028B3F0E011
:1000D000EE0FFF1FEE0FFF1FEE59FF4F81E090E084
:1000E000018002C0880F991F0A94E2F7822B88BB17
:1000F0001FBC8CE38EBD10926100109260000895C9
:10010000E0917600F0E0EE0FFF1FEE0FFF1FEE59BB
:10011000FF4F80818EBD81E090E0909361008093DD
:1001200060001FBC8EB5811103C08FEF8FBD089595
:1001300080E188BF0895E0917600F0E0EE0FFF1FA8
:10014000EE0FFF1FEE59FF4F22812223B1F0E09105
:10015000760028B3F0E0EE0FFF1FEE0FFF1FEE5901
:10016000FF4F018002C0880F991F0A94E2F7809523
:10017000909530E08223932388BBE0917600F0E0F5
:10018000EE0FFF1FEE0FFF1FEE59FF4F808190E033
:10019000803C91058CF083E090E090936100809327
:1001A0006000E0917600F0E0EE0FFF1FEE0FFF1F02
:1001B000EE59FF4F80EC10C082E090E09093610018
:1001C00080936000E0917600F0E0EE0FFF1FEE0FED
:1001D000FF1FEE59FF4F8FEB9081891B8EBD1FBC17
:1001E000089583E090E090936100809360001FBCCD
:1001F0008FEF8EBD08951F920F920FB60F921124AC
:100200002F933F934F935F936F937F938F939F931E
:10021000AF93BF93EF93FF932DDFFF91EF91BF91CA
:10022000AF919F918F917F916F915F914F913F918E
:100230002F910F900FBE0F901F90189561E081E0F5
:1002400056D18FEA89BD89B7806189BF0895CF9360
:10025000DF93EC0110927A0061E081E092D1CE014F
:1002600005D160E081E0DF91CF918BC188E592E01C
:100270009093790080937800809178009091790034
:1002800080369940A4F462E070E080E090E0C9D04C
:1002900080917A00882329F08091780090917900EC
:1002A000D6DF80917800909179000196E1CF80E6C9
:1002B00099E09093790080937800809178009091F4
:1002C000790089359240A4F062E070E080E090E02F
:1002D000A8D080917A00882329F0809178009091AD
:1002E0007900B5DF80917800909179000197E1CF96
:1002F00008951F920F920FB60F9211248F93809141
:1003000077008E5F8093770080917700843128F0AA
:100310001092770081E080937A008F910F900FBE4A
:100320000F901F90189580B7807F80BF80B780683E
:1003300080BF8CB580648CBD8FEF8DBD80B787602A
:1003400080BF08951F920F920FB60F9211242F9322
:100350003F938F939F93AF93BF9380917C00909135
:100360007D00A0917E00B0917F0030917B0026E05F
:10037000230F2D3730F029E8230F0396A11DB11D5F
:1003800003C00296A11DB11D20937B0080937C00C9
:1003900090937D00A0937E00B0937F0080918000B9
:1003A00090918100A0918200B09183000196A11DDF
:1003B000B11D8093800090938100A0938200B09340
:1003C0008300BF91AF919F918F913F912F910F909B
:1003D0000FBE0F901F9018953FB7F8948091800042
:1003E00090918100A0918200B091830022B708B65D
:1003F00001FE05C02F3F19F00196A11DB11D3FBFA1
:100400006627782F892F9A2F620F711D811D911DEC
:1004100043E0660F771F881F991F4A95D1F708950B
:100420000895CF92DF92EF92FF92CF93DF936B010B
:100430007C01D2DFEB01C114D104E104F10479F0B5
:10044000EFDFCADF6C1B7D0B683E7340A0F381E0D9
:10045000C81AD108E108F108C851DC4FF2CFDF918A
:10046000CF91FF90EF90DF90CF900895833091056A
:1004700028F0880F991F04970197F1F708958AB51E
:1004800082608ABD8AB581608ABD83B7887F8360B8
:1004900083BF789489B7826089BF45DF86B188774A
:1004A000866886B9379A0895813031F48AB58F7796
:1004B0008ABD8AB58F7B07C0823039F48AB58F7DBB
:1004C0008ABD8AB58F7E8ABD0895833039F480B79E
:1004D0008F7D80BF80B78F7E80BF0895843031F4D8
:1004E0008CB58F7D8CBD8CB58F7E8CBD0895CF93E0
:1004F000DF9387FF0FC08F7741F0813041F082306A
:1005000041F0833039F08FEF05C085E003C082E011
:1005100001C084E090E0FC01EC5DFF4F2491FC0100
:10052000E65DFF4F8491882349F190E0880F991F81
:10053000FC01EA5CFF4FA591B491805D9F4FFC01E7
:10054000C591D4919FB7611108C0F8948C91209502
:1005500082238C93888182230AC0623051F4F894FC
:100560008C91322F309583238C938881822B8883C2
:1005700004C0F8948C91822B8C939FBFDF91CF9114
:1005800008950F931F93CF93DF931F92CDB7DEB7DC
:1005900087FF0FC08F7741F0813041F0823041F00A
:1005A000833039F08FEF05C085E003C082E001C0E1
:1005B00084E0282F30E0F901E25EFF4F8491F901D9
:1005C000EC5DFF4F1491F901E65DFF4F04910023AC
:1005D000D1F0882319F0698367DF6981E02FF0E0AB
:1005E000EE0FFF1FE05DFF4FA591B4919FB7611122
:1005F00005C0F8948C911095812303C0F8948C91D8
:10060000812B8C939FBF0F90DF91CF911F910F9102
:10061000089581B781BF33DF11DE28DEFECFF89465
:02062000FFCF0A
:020622000300D3
:00000001FF
