:200000000EC028C027C027C025C024C023C022C021C020C01FC01EC01DC01CC01BC0112487
:200020001FBECFE5D2E0DEBFCDBF10E0A0E6B0E0E6E6F1E002C005900D92A236B107D9F75B
:2000400020E0A2E6B0E001C01D92A636B207E1F72DD087C0D5CF1F920F920FB60F921124D6
:200060008F939F9380916000909161008EBD9F918F910F900FBE0F901F90189580E680BF92
:2000800080B7886080BF80E489BF89E98DBD80916000909161008EBD089583E287B987E8AB
:2000A00086B983B1887F83B9A49A0895F89487B317BAB99AE3DFF1DF7894EFEFF0E0369AA9
:2000C0003699FECF85B190E090936300809362002091620030916300C90182959295907F95
:2000E0009827807F9827821B930BBF0113D0709365006093640080916400909165009093C8
:200100006100809360008FE19EE40197F1F700C00000D5CF97FB072E16F4009406D077FD86
:2001200008D00BD007FC05D03EF4909581959F4F0895709561957F4F0895AA1BBB1B51E109
:2001400007C0AA1FBB1FA617B70710F0A61BB70B881F991F5A95A9F780959095BC01CD0184
:080160000895F894FFCF32006E
:00000001FF
